:10000000C6C00000D4C00000D2C00000D0C00000B4
:10001000CEC00000CCC00000CAC00000C8C00000B4
:10002000C6C00000C4C00000B5C30000EAC30000A1
:10003000BEC00000BCC00000BAC00000B8C00000D4
:10004000B6C00000B4C00000B2C00000B0C00000E4
:10005000AEC00000ACC00000AAC0000079C1000022
:10006000A6C00000A4C00000A2C00000A0C0000004
:100070009EC000009CC000009AC0000098C0000014
:1000800096C0000094C0000092C0000090C0000024
:100090008EC000008CC000008AC0000088C0000034
:1000A00086C0000084C0000082C000000001000083
:1000B000740112000200002F0129002200005801E3
:1000C0001C00210000410109000300002B01040174
:1000D0000309040B011E02030904DD002C2C035349
:1000E000006D006100720074002000460069006C21
:1000F0000061006D0065006E007400200053006513
:10010000006E0073006F00720000001E0353006C4D
:1001100000610076006100200055006B00720061F4
:100120000069006E00690021000000040309040951
:10013000022900010100C03209040000020300008E
:1001400000092111010001221C0007058103400064
:10015000020705020340000806ABFF0A0002A101E6
:100160007508150026FF0095400901810295400998
:10017000029102C01201000200000020C9043412E2
:1001800000010102000101C13601C0360000112446
:100190001FBECFEFDAE0DEBFCDBF21E0A0E0B1E0CF
:1001A00001C01D92AA30B207E1F702D077C428CF70
:1001B000CF93DF93CDB7DEB7C054D1090FB6F89413
:1001C000DEBF0FBECDBF80E880936100109261005A
:1001D000569A5E9A86988E9A8FB186FB882780F908
:1001E00080930001EFD005D18823E9F32FEF83ED51
:1001F00090E3215080409040E1F700C0000014BC23
:1002000085E085BD81E080936E0011E000E28FB152
:100210009091000186FB882780F9981701F18FB132
:1002200086FB882780F980930001809101019091DD
:100230000201A0910301B09104010196A11DB11D1D
:100240008093010190930201A0930301B0930401F4
:1002500080910001882311F05E9A01C05E9860E0F1
:10026000CE010196C9D018160CF05AC0682FCE01E5
:10027000019687D0882309F453C08B81833031F0F5
:10028000803881F1813009F04BC009C01092010122
:1002900010920201109203011092040121C02C81DE
:1002A0008D8190E0A0E0B0E0DC0199278827B22B97
:1002B0002F81822B4E8150E0542F4427052E000CB5
:1002C000660B770B842B952BA62BB72B0097A105DC
:1002D000B10531F00197A105B10511F55E9A20C075
:1002E0005E981EC0F8941093E0000093D80010921E
:1002F000C9008FE19EE40197F1F700C0000014B837
:1003000017B81AB81DB810BA10926E0010926F008C
:10031000109271001092720010927A000C94801F5B
:1003200080910501882309F472CF10920501209174
:10033000010130910201409103015091040162E0FA
:10034000CE0101962AD062E3CE0101963CD15FCF67
:100350001F920F920FB60F9211248F938091060176
:100360008F3120F48F5F8093060105C01092060143
:1003700081E0809305018F910F900FBE0F901F9029
:100380001895FC01603439F480818B3A21F481E0C6
:1003900091819D3C09F080E00895FC0180E4DF013B
:1003A0001D928A95E9F78BEA80838DEC81836283C5
:1003B000538344833583268308958091E80080FF2A
:1003C000FCCF089581E08093D70080EA8093D80025
:1003D00082E189BD09B400FEFDCF80E98093D80099
:1003E0001092E000109209018CE08093E200789472
:1003F0000895809109010895FC01809109018111FE
:1004000002C08FEF08958FB7F8946093080192E0CF
:100410009093E9002091E80025FD0DC08FBF8091E9
:100420000801882309F4CDC080910901882349F38C
:100430008FB7F894EDCF9091F10090839091F100F7
:1004400091839091F10092839091F1009383909128
:10045000F10094839091F10095839091F10096833F
:100460009091F10097839091F10090879091F10025
:1004700091879091F10092879091F10093879091EC
:10048000F10094879091F10095879091F100968703
:100490009091F10097879091F100908B9091F100ED
:1004A000918B9091F100928B9091F100938B9091B0
:1004B000F100948B9091F100958B9091F100968BC7
:1004C0009091F100978B9091F100908F9091F100B5
:1004D000918F9091F100928F9091F100938F909174
:1004E000F100948F9091F100958F9091F100968F8B
:1004F0009091F100978F9091F10090A39091F1006D
:1005000091A39091F10092A39091F10093A3909107
:10051000F10094A39091F10095A39091F10096A31E
:100520009091F10097A39091F10090A79091F10024
:1005300091A79091F10092A79091F10093A79091CB
:10054000F10094A79091F10095A79091F10096A7E2
:100550009091F10097A79091F10090AB9091F100EC
:1005600091AB9091F10092AB9091F10093AB90918F
:10057000F10094AB9091F10095AB9091F10096ABA6
:100580009091F10097AB9091F10090AF9091F100B4
:1005900091AF9091F10092AF9091F10093AF909153
:1005A000F10094AF9091F10095AF9091F10096AF6A
:1005B0009091F10097AF9BE69093E8008FBF80E4A5
:1005C000089580E00895FC0180910901811102C025
:1005D0008FEF08958FB7F8946093070191E090939F
:1005E000E9002091E80025FD0DC08FBF8091070133
:1005F000882309F4CDC080910901882349F38FB77E
:10060000F894EDCF90819093F10091819093F10057
:1006100092819093F10093819093F1009481909353
:10062000F10095819093F10096819093F10097816C
:100630009093F10090859093F10091859093F10053
:1006400092859093F10093859093F1009485909317
:10065000F10095859093F10096859093F100978530
:100660009093F10090899093F10091899093F1001B
:1006700092899093F10093899093F10094899093DB
:10068000F10095899093F10096899093F1009789F4
:100690009093F100908D9093F100918D9093F100E3
:1006A000928D9093F100938D9093F100948D90939F
:1006B000F100958D9093F100968D9093F100978DB8
:1006C0009093F10090A19093F10091A19093F1008B
:1006D00092A19093F10093A19093F10094A1909333
:1006E000F10095A19093F10096A19093F10097A14C
:1006F0009093F10090A59093F10091A59093F10053
:1007000092A59093F10093A59093F10094A59093F6
:10071000F10095A59093F10096A59093F10097A50F
:100720009093F10090A99093F10091A99093F1001A
:1007300092A99093F10093A99093F10094A99093BA
:10074000F10095A99093F10096A99093F10097A9D3
:100750009093F10090AD9093F10091AD9093F100E2
:1007600092AD9093F10093AD9093F10094AD90937E
:10077000F10095AD9093F10096AD9093F10097AD97
:100780009093F1009AE39093E8008FBF80E408957E
:1007900080E008951F920F920FB60F9211248F934D
:1007A0009F938091E1001092E10083FF0FC01092AF
:1007B000E90091E09093EB001092EC0092E29093AC
:1007C000ED0098E09093F0001092090182FF12C0B2
:1007D00080910901882371F080910801882319F024
:1007E00081508093080180910701882319F081507E
:1007F000809307019F918F910F900FBE0F901F90D4
:1008000018951F920F920FB60F921124FF920F931B
:100810001F932F933F934F935F936F937F938F9388
:100820009F93AF93BF93CF93DF93EF93FF93109278
:10083000E9008091E80083FF18C1F090F1008091F9
:10084000F1000091F1009091F10010E0192BC0919E
:10085000F1009091F100D0E0D92B2091F10060914E
:10086000F10092EF9093E800863009F049C08CEADD
:1008700090E04DED50E0FC01A591B4910A171B07E3
:10088000D9F4FC013296A591B491CA17DB07A1F403
:10089000FC01349645915491FC013696849130E0E8
:1008A000362B2F3F310519F010F02FEF30E02817CD
:1008B00008F4822F3EEF0CC0079648175907D9F667
:1008C000D4C0490F511D891B3093E8008823A9F03B
:1008D0009091E800292F2570D9F392FDC9C0982F77
:1008E000813208F090E2FA01292F222351F364911A
:1008F0006093F10021503196F8CF903249F3B8C09F
:10090000853041F48EEF8093E80057DD0068009356
:10091000E300AEC0893039F5F1106CC000930901D5
:100920008EEF8093E80041E086E891E04093E90093
:100930009C012F5F3F4FFC0154915093EB005523D6
:1009400059F0F90124912093EC009C012D5F3F4F59
:100950003196E491E093ED004F5F453011F0C9010D
:10096000E5CF8EE142C0883049F4F0E8FF1242C082
:1009700024DD809109018093F10073C0811114C0BE
:100980001CDD82E8F8120AC0C093E9008091EB00F8
:1009900085FB882780F91092E90001C080E08093F0
:1009A000F1001092F1005DC0982F9D7F913011F5FC
:1009B000E2E0FE121FC0012B09F057C0CF779FEF76
:1009C0009C0F943008F051C09EEF9093E800C093C4
:1009D000E900833009F449C089E18093EB0081E0AC
:1009E00090E001C0880FCA95EAF78093EA00109260
:1009F000EA003EC0CD2BC9F5F1EAFF121EC08130DE
:100A0000A1F580E43EEF9091E800292F2570D9F3FD
:100A100092FD2EC0982F813208F090E2292F2223D8
:100A200021F01092F1002150FACF891B3093E80099
:100A30008111E9CF903239F31BC091E2F91215C050
:100A4000893099F480E42BEF982F813208F090E2FE
:100A50003091E80032FFFCCF2093E800891BA1F71A
:100A6000ACDC8EEF8093E80003C081E28093EB0062
:100A7000FF91EF91DF91CF91BF91AF919F918F91B6
:100A80007F916F915F914F913F912F911F910F91A6
:100A9000FF900F900FBE0F901F901895F894FFCF06
:00000001FF
